:020000040800F2
:10000000100400200101000895060008E50500081D
:100010009106000849010008850C00080000000056
:10002000000000000000000000000000E1070008E0
:100030004D010008000000006907000841090008A0
:100040001B0100081B0100081B0100081B01000820
:100050001B0100081B0100081B0100081B01000810
:100060001B0100081B0100081B0100081B01000800
:100070001B0100081B0100081B0100081B010008F0
:100080001B0100081B0100081B0100081B010008E0
:100090001B0100081B0100081B0100081B010008D0
:1000A0001B0100081B0100081B0100081B010008C0
:1000B0001B010008AD0900081B0100081B01000816
:1000C0001B0100081B0100081B0100081B010008A0
:1000D0001B0100081B0100081B0100081B01000890
:1000E000510100081B0100081B010008DFF80CD0BB
:1000F00000F018F8004800470D1300081004002015
:100100000648804706480047FEE7FEE7FEE7FEE7B1
:10011000FEE7FEE7FEE7FEE7FEE7FEE7450900082B
:10012000ED000008064C074D06E0E06840F00103D2
:1001300094E8070098471034AC42F6D3FFF7DAFF93
:100140003014000840140008FFE7FEE77047000085
:1001500080B500F077FE40F20101C2F200010870A4
:1001600000F022F880BD0000B0B586B00124012067
:1001700000F01AFB00F09EF84FF48040029000253A
:1001800003950C200490059402A800F019F828208B
:100190008DF800008DF801508DF8025001946846EA
:1001A00000F07AFA06B0B0BD81B04FF48040009004
:1001B000009840F21441C4F20101086001B0704798
:1001C00082B001900020009040F20040C4F2010093
:1001D00000900198C06800285DD0FFE70198006892
:1001E00040F20041C4F201010A6822EA00000860FE
:1001F0000198006840F20441C4F201010A6822EA51
:100200000000086001984068009908440090019837
:10021000006800990A68104308600198006840F27D
:100220000841C4F201010A6822EA0000086001984E
:10023000006840F20C41C4F201010A6822EA0000A1
:10024000086001988068102813D1FFE701980068C2
:1002500040F20841C4F201010A68104308600198A5
:10026000006840F20C41C4F201010A6810430860C2
:1002700010E040F20040C4F2010000900198806854
:100280000099084400900198006800990A6810439A
:100290000860FFE70CE0019840680099084400906E
:1002A0000198006800990A6822EA00000860FFE7E8
:1002B00002B0704782B004208DF807000E208DF840
:1002C0000600002000909DF8060000F0030080006A
:1002D0000F2101FA00F0009000989DF8061001F03F
:1002E000FC010822C4F201028B5823EA0000885066
:1002F0009DF807009DF8061001F003039B0098404D
:1003000001F0FC018B581843885002B07047000080
:1003100088B0079006910020059004900390029009
:10032000019000900698806800F00F0005900698F4
:10033000007AC006002806D5FFE7069840680599B0
:1003400008430590FFE70698007800284FD0FFE7A4
:1003500007980068019000200390FFE703980728A2
:1003600041D8FFE70398012101FA00F002900698B6
:1003700000880299084004900498029988422DD17F
:10038000FFE703988000029002980F2101FA00F025
:1003900000900098019921EA0000019005980299C7
:1003A000884001990843019006988068282807D161
:1003B000FFE70398012101FA00F0079948610CE07A
:1003C00006988068482807D1FFE70398012101FAC1
:1003D00000F007990861FFE7FFE7FFE7FFE70398F1
:1003E00001300390BAE7019807990860FFE7069883
:1003F0000088B0F5807F51DBFFE7079840680190E7
:1004000000200390FFE70398072843D8FFE70398ED
:100410000830012101FA00F0029006980088029944
:10042000084004900498029988422ED1FFE703986F
:100430008000029002980F2101FA00F000900098CD
:10044000019921EA000001900598029988400199DC
:100450000843019006988068282808D1FFE7039890
:100460000830012101FA00F007994861FFE706987A
:100470008068482808D1FFE703980830012101FA75
:1004800000F007990861FFE7FFE7FFE703980130F5
:100490000390B8E7019807994860FFE708B07047F4
:1004A00086B040F20020C0F2300005900120049098
:1004B000002003900290019000909DF81700000624
:1004C000002806D5FFE71C20C4F201000068019057
:1004D00005E00420C4F2010000680190FFE70598E0
:1004E000C0F303400090BDF814000390059800F499
:1004F0004010B0F5401F0CD1FFE7019820F070606C
:1005000001900420C4F20100016821F070610160D3
:1005100025E09DF81600C00600280FD5FFE70098DB
:10052000032101FA00F002900298019921EA0000EB
:100530000190019840F0706001900FE003980599D8
:100540006FF00F0202EA51418840019921EA000050
:100550000190019840F070600190FFE7FFE7049878
:1005600058B1FFE7039805996FF00F0202EA514175
:100570008840019908430190FFE79DF817000006A5
:10058000002806D5FFE701981C21C4F2010108608C
:1005900005E001980421C4F201010860FFE706B0FC
:1005A0007047000082B041F60000C4F201000190E3
:1005B0004FF40040ADF8020000208DF801000198D2
:1005C0008068BDF80210084204D0FFE701208DF8D2
:1005D000010003E000208DF80100FFE79DF8010015
:1005E00002B07047FFE7FEE7F0B583B0582000F097
:1005F000DBF82026ADF80060102702970320019059
:1006000040F60040C4F201006C462146FFF780FE30
:100610000120ADF8000041F60005C4F201052846AE
:100620002146FFF775FE0220ADF80000284621465E
:10063000FFF76EFE0420ADF8000028462146FFF7C4
:1006400067FE0820ADF8000028462146FFF760FE4F
:10065000ADF8007028462146FFF75AFEADF800605D
:1006600028462146FFF754FE4020ADF800002846FA
:100670002146FFF74DFE4FF40050ADF8000041F267
:100680000000C4F201002146FFF742FE03B0F0BDB6
:10069000FFE7FEE77047000084B00390002002905F
:1006A00001900F20009003984068C8B3FFE74EF612
:1006B0000C50CEF200000068C043C0F3022002904C
:1006C0000298C0F10400019000980299C84000907F
:1006D00003984078019988400290039880780099A7
:1006E0000840029908430290029800010290029883
:1006F000039909784EF20042CEF200028854039822
:10070000007800F01F01012202FA01F14EF20012FE
:10071000CEF2000242EAD00020F00300016010E0B7
:100720000398007800F01F01012202FA01F14EF255
:100730008012CEF2000242EAD00020F003000160F5
:10074000FFE704B07047000081B04FF4C060009034
:1007500000980021C0F2FA5108434EF60C51CEF237
:100760000001086001B070477047000082B00220AD
:10077000019001200090009848B1FFE7019841F2F4
:100780001C01C4F202010A681043086009E00198E4
:1007900041F21C01C4F202010A6822EA000008606A
:1007A000FFE702B07047000082B001900120009086
:1007B000009848B1FFE7019841F21801C4F2020124
:1007C0000A681043086009E0019841F21801C4F278
:1007D00002010A6822EA00000860FFE702B07047E1
:1007E0007047000080B500F001F880BD82B00020A5
:1007F0000190009041F20000C4F20200016841F44F
:1008000080310160FFE741F20000C4F2020000689D
:1008100000F400300090019801300190FFE700994A
:10082000002031B9FFE70198B0F5A06018BF0120A2
:10083000FFE7C0070028E6D1FFE741F20000C4F25D
:10084000020000688003002803D5FFE70120009024
:1008500002E000200090FFE70098012850D1FFE758
:1008600042F20000C4F20200016841F01001016090
:10087000016821F003010160016841F0020101609B
:1008800041F20400C4F202000168016001680160E5
:10089000016841F480610160016821F47C1101600C
:1008A000016841F4E811016041F20000C4F2020065
:1008B000016841F080710160FFE741F20000C4F27D
:1008C000020000688001002801D4FFE7F5E741F24B
:1008D0000400C4F20200016821F003010160016814
:1008E00041F002010160FFE741F20400C4F202009E
:1008F000006800F00C00082801D0FFE7F4E700E0F2
:10090000FFE702B07047000081B06FF00400009074
:100910000098042809D1FFE74EF21000CEF2000043
:10092000016841F00401016008E04EF21000CEF2CF
:100930000000016821F004010160FFE701B0704789
:100940007047000080B541F20000C4F20200016867
:1009500041F00101016041F20401C4F202010A68A0
:100960000023CFF6FF031A400A6002684FF6FF73B8
:10097000CFF6F6631A400260026822F48022026019
:10098000086820F4FE00086041F20800C4F202008A
:100990004FF41F010160FFF725FF4EF60850CEF21D
:1009A00000004FF00061016080BD000080B500F0E4
:1009B00077F8E8B1FFE740F20400C2F200000168F6
:1009C000013101600068B0F57A7F0ED3FFE740F295
:1009D0000400C2F200000021016040F20800C2F2EF
:1009E0000000018801310180FFE700F031F8FFE7E6
:1009F00080BD000010B586B06320ADF8160047201A
:100A0000ADF81400FFF7B2FEBDF81600ADF80C000B
:100A1000BDF81400ADF808000024ADF80E40ADF8A4
:100A20000A4002A800F088F800F068F81D208DF850
:100A300000008DF8014003208DF802000120019094
:100A40006846FFF729FE012000F012F806B010BD3D
:100A500082B040F20040C4F2000001900120ADF8E5
:100A60000200BDF80200C0430199088202B070473D
:100A700082B040F20041C4F2000101910090009860
:100A800030B1FFE70198018841F00101018005E0E4
:100A90000198018821F001010180FFE702B0704751
:100AA00084B040F20040C4F2000003900120ADF891
:100AB0000A0000200190ADF80200ADF80000039894
:100AC000008ABDF80A100840ADF80200039880893A
:100AD000BDF80A100840ADF80000BDF8020038B1BA
:100AE000FFE7BDF8000018B1FFE70120019002E028
:100AF00000200190FFE7019804B0704783B040F2F6
:100B00000040C4F2000002900120ADF80600009001
:100B1000009838B1FFE7BDF8060002998A891043B2
:100B2000888107E0BDF8060002998A8922EA000060
:100B30008881FFE703B0704783B040F20041C4F200
:100B40000001029101900020ADF802000298008897
:100B5000ADF80200029842F60041C4F20101884259
:100B600025D0FFE7029843F20041C4F20101884218
:100B70001DD0FFE70298B0F1804F18D0FFE7029830
:100B800040F20041C4F20001884210D0FFE7029811
:100B900040F60001C4F20001884208D0FFE7029845
:100BA00040F60041C4F2000188420ED1FFE7BDF8D3
:100BB000020020F07000ADF8020001984088BDF8F6
:100BC00002100843ADF80200FFE7029841F200016D
:100BD000C4F20001884216D0FFE7029841F20041BA
:100BE000C4F2000188420ED0FFE7BDF8020020F4F5
:100BF0004070ADF802000198C088BDF802100843AB
:100C0000ADF80200FFE7BDF80200029908800198E4
:100C10008088029988850198008802990885029841
:100C200042F60041C4F20101884220D0FFE7029859
:100C300043F20041C4F20101884218D0FFE7029854
:100C400044F20001C4F20101884210D0FFE702988B
:100C500044F20041C4F20101884208D0FFE7029843
:100C600044F60001C4F20101884205D1FFE7019872
:100C7000007A02990886FFE702980121818203B079
:100C800070470000FFE7FEE780B584B04020FFF723
:100C90008BFD4FF40040ADF80400032002900420C7
:100CA000039040F60040C4F2010001A9FFF730FBB9
:100CB00004B080BD80B584B04020FFF775FD4FF4CF
:100CC0000040ADF80400032002901020039040F68D
:100CD0000040C4F2010001A9FFF71AFB04B080BD77
:100CE00081B0ADF80200BDF802000044ADF802008A
:100CF000FFE7BDF80200411EADF8021008B1FFE7A2
:100D0000F7E701B07047000080B584B001228DF88C
:100D10000F208DF80E00002002908DF80710902013
:100D20008DF806004CF68000ADF804009DF80F0029
:100D3000032804DBFFE702208DF80F00FFE79DF892
:100D40000F0001A9085C8DF803009DF80E0000F06B
:100D500007008DF80E009DF80E009DF80310084363
:100D60008DF803009DF8070000F07F008DF8020069
:100D7000029838B1FFE79DF8020040F080008DF83E
:100D80000200FFE79DF803009DF8021000F08CFAC6
:100D900004B080BDF0B583B04820FFF705FD012009
:100DA000FFF702FDFFF77CFB4FF40060ADF8000099
:100DB000032601961027029740F60045C4F201056C
:100DC0006C4628462146FFF7A3FA4FF48060ADF841
:100DD00000000196029728462146FFF799FA4FF442
:100DE0000040ADF800000196029741F60005C4F2FC
:100DF000010528462146FFF78BFA4FF48040ADF8F5
:100E0000000001960420029028462146FFF780FA50
:100E100003B0F0BD80B5FFF7BDFF40F60C40C4F253
:100E20000100016841F400610160016821F4806102
:100E3000016041F60C00C4F20100016841F4004178
:100E4000016080BD10B582B040F60C44C4F20104CC
:100E5000206820F400602060C820FFF741FF1520C3
:100E600000F050F86420FFF73BFF00F00DF88DF81C
:100E70000700206840F4006020606420FFF730FF26
:100E80009DF8070002B010BD80B582B008208DF833
:100E90000600FFF7F9FEFFE740F60C40C4F2010040
:100EA000016841F4806101606420FFF719FF9DF83B
:100EB000070040008DF80700FFF774FB30B1FFE733
:100EC0009DF8070001308DF80700FFE740F60C4061
:100ED000C4F20100016821F4806101606420FFF721
:100EE000FFFEFFE79DF8060001388DF806000006BA
:100EF0000028D1D1FFE7FFF7DDFE9DF8070002B023
:100F000080BD000010B582B08DF80700FFF7D2FE5B
:100F1000C820FFF7E5FE00208DF80600FFE79DF8EA
:100F20000600072839DCFFE79DF8070000060028C7
:100F300009D5FFE741F60C00C4F20100016841F455
:100F40000041016008E041F60C00C4F201000168B4
:100F500021F400410160FFE79DF8070040008DF893
:100F600007006420FFF7BCFE40F60C44C4F2010405
:100F7000206840F4806020606420FFF7B1FE2068A4
:100F800020F4806020606420FFF7AAFEFFE79DF850
:100F9000060001308DF80600C1E76420FFF7A0FECF
:100FA00002B010BD80B584B00390039846F267612B
:100FB000C6F2666180FB01239A1002EBD37202EB4A
:100FC0008202A0EB42008DF80B00039848F21F5CF0
:100FD000C5F2EB1C80FB0C32531103EBD27264237D
:100FE00002FB130080FB0101880800EBD1708DF833
:100FF0000A00039844F6D351C1F2620180FB012339
:101000009A1102EBD3724FF47A7302FB130080FB48
:101010000C02500900EBD2708DF80900039848F6D5
:10102000AD3CC6F6DB0C80FB0C32131303EBD27223
:1010300042F2107302FB130080FB0101880900EBF0
:10104000D1708DF8080003984BF2895EC1F2F84E1A
:1010500080FB0E235A1302EBD37240F635435A43FA
:10106000A0EB421080FB0C02100B00EBD2708DF84D
:10107000070003984DF6836CC4F21B3C80FB0C31D7
:101080008B1403EBD17143F609535943A0EB811044
:1010900080FB0E01480B00EBD1708DF80600039821
:1010A0004CF66B21C6F65F3180FB0132931503EBE2
:1010B000D27249F28063C0F2980302FB130080FBF6
:1010C0000C02900C00EBD2708DF80500039880FBA9
:1010D0000101880D00EBD1708DF804009DF804002B
:1010E00098B1FFE700200090FFE7009807280BDC8D
:1010F000FFE7009801A9095CC0B2FFF705FEFFE712
:10110000009801300090F0E7ACE09DF8050098B140
:10111000FFE701200090FFE7009807280BDCFFE7BE
:10112000009801A9095CC0B2FFF7EEFDFFE7009847
:1011300001300090F0E794E09DF8060098B1FFE7D9
:1011400002200090FFE7009807280BDCFFE70098DB
:1011500001A9095CC0B2FFF7D7FDFFE70098013095
:101160000090F0E77CE09DF8070098B1FFE70320CE
:101170000090FFE7009807280BDCFFE7009801A923
:10118000095CC0B2FFF7C0FDFFE700980130009096
:10119000F0E764E09DF8080098B1FFE704200090B4
:1011A000FFE7009807280BDCFFE7009801A9095C1E
:1011B000C0B2FFF7A9FDFFE7009801300090F0E70B
:1011C0004CE09DF8090098B1FFE705200090FFE78B
:1011D000009807280BDCFFE7009801A9095CC0B262
:1011E000FFF792FDFFE7009801300090F0E734E050
:1011F0009DF80A0098B1FFE706200090FFE70098ED
:1012000007280BDCFFE7009801A9095CC0B2FFF7D3
:101210007BFDFFE7009801300090F0E71CE09DF8AF
:101220000B0098B1FFE707200090FFE70098072820
:101230000BDCFFE7009801A9095CC0B2FFF764FD71
:10124000FFE7009801300090F0E704E0072000215C
:10125000FFF75AFDFFE7FFE7FFE7FFE7FFE7FFE7DD
:10126000FFE7FFE704B080BD10B582B0A4208DF881
:101270000700FFF71FFD40F60C44C4F2010420688C
:1012800020F400602060C820FFF72AFD9DF80700C9
:10129000FFF738FE206840F4006020606420FFF70C
:1012A0001FFD02B010BD000010B582B08DF8070020
:1012B0008DF80610FFF7FEFC40F60C44C4F2010462
:1012C000206820F400602060C820FFF709FD9DF829
:1012D0000700FFF717FE6420FFF702FD9DF80600E8
:1012E000FFF710FE206840F4006020606420FFF7E4
:1012F000F7FC02B010BD000080B5FFF705FB40F21F
:101300000000C2F200000121017080BD40F2801493
:10131000C4F22324FFF7F0FFFFF716FAFFF77AFD78
:10132000FEF722FFFFF766FBFFF75EF99820FF212B
:101330004FF0FF09FFF7B8FF40F2010640F2040743
:1013400040F202054CF6631A47F20D4B0120C2F23F
:101350000006C2F20007C2F20005C9F22F6AC0F20D
:10136000DA0B20602068B0FA80F040092060307805
:101370000D280FD00E2821D00F2831D16068B0FA87
:1013800080F0400960600120FFF772FB4FF0020817
:101390001EE000BF00204FF00008FFF769FBFFF7D9
:1013A00063FF40F20800C2F20000C4F80880C4F8ED
:1013B0000480C7F80080A0F8008009E0A068B0FAB7
:1013C00080F04009A0600020FFF752FB4FF00108B9
:1013D00085F8008086F80090B8F1020FC2D104E0D1
:1013E00095F80080B8F1020FBCD1386800FB0AF113
:1013F0004FEAB1015945B5D840F20801C2F20001E7
:1014000009884FF47A7201FB0200FFF7CBFDA9E7D0
:1014100002E008C8121F08C1002AFAD170477047BD
:10142000002001E001C1121F002AFBD1704700001B
:1014300040140008000000201004000020140008E0
:04000005080000ED02
:00000001FF
